{
  "address": "0x81f273Ee0a660CdFdbA32Ca31d0Bca22c02565a3",
  "abi": [
    {
      "anonymous": false,
      "inputs": [
        {
          "indexed": false,
          "internalType": "address",
          "name": "registedBy",
          "type": "address"
        },
        {
          "indexed": false,
          "internalType": "string",
          "name": "name",
          "type": "string"
        },
        {
          "indexed": false,
          "internalType": "string",
          "name": "symbol",
          "type": "string"
        },
        {
          "indexed": false,
          "internalType": "address",
          "name": "rewardToken",
          "type": "address"
        },
        {
          "indexed": false,
          "internalType": "address",
          "name": "stakeToken",
          "type": "address"
        },
        {
          "indexed": false,
          "internalType": "address",
          "name": "pool",
          "type": "address"
        },
        {
          "indexed": false,
          "internalType": "uint256",
          "name": "poolId",
          "type": "uint256"
        }
      ],
      "name": "NodeStakingPoolCreated",
      "type": "event"
    },
    {
      "anonymous": false,
      "inputs": [
        {
          "indexed": true,
          "internalType": "address",
          "name": "previousOwner",
          "type": "address"
        },
        {
          "indexed": true,
          "internalType": "address",
          "name": "newOwner",
          "type": "address"
        }
      ],
      "name": "OwnershipTransferred",
      "type": "event"
    },
    {
      "anonymous": false,
      "inputs": [
        {
          "indexed": false,
          "internalType": "address",
          "name": "account",
          "type": "address"
        }
      ],
      "name": "Paused",
      "type": "event"
    },
    {
      "anonymous": false,
      "inputs": [
        {
          "indexed": false,
          "internalType": "address",
          "name": "account",
          "type": "address"
        }
      ],
      "name": "Unpaused",
      "type": "event"
    },
    {
      "inputs": [
        {
          "internalType": "uint256",
          "name": "",
          "type": "uint256"
        }
      ],
      "name": "allPools",
      "outputs": [
        {
          "internalType": "address",
          "name": "",
          "type": "address"
        }
      ],
      "stateMutability": "view",
      "type": "function"
    },
    {
      "inputs": [],
      "name": "allPoolsLength",
      "outputs": [
        {
          "internalType": "uint256",
          "name": "",
          "type": "uint256"
        }
      ],
      "stateMutability": "view",
      "type": "function"
    },
    {
      "inputs": [
        {
          "internalType": "address",
          "name": "_creator",
          "type": "address"
        },
        {
          "internalType": "address",
          "name": "_token",
          "type": "address"
        }
      ],
      "name": "getCreatedPoolsByToken",
      "outputs": [
        {
          "internalType": "address[]",
          "name": "",
          "type": "address[]"
        }
      ],
      "stateMutability": "view",
      "type": "function"
    },
    {
      "inputs": [
        {
          "internalType": "address",
          "name": "_creator",
          "type": "address"
        },
        {
          "internalType": "address",
          "name": "_token",
          "type": "address"
        }
      ],
      "name": "getCreatedPoolsLengthByToken",
      "outputs": [
        {
          "internalType": "uint256",
          "name": "",
          "type": "uint256"
        }
      ],
      "stateMutability": "view",
      "type": "function"
    },
    {
      "inputs": [
        {
          "internalType": "address",
          "name": "",
          "type": "address"
        },
        {
          "internalType": "address",
          "name": "",
          "type": "address"
        },
        {
          "internalType": "uint256",
          "name": "",
          "type": "uint256"
        }
      ],
      "name": "getPools",
      "outputs": [
        {
          "internalType": "address",
          "name": "",
          "type": "address"
        }
      ],
      "stateMutability": "view",
      "type": "function"
    },
    {
      "inputs": [],
      "name": "initialize",
      "outputs": [],
      "stateMutability": "nonpayable",
      "type": "function"
    },
    {
      "inputs": [],
      "name": "owner",
      "outputs": [
        {
          "internalType": "address",
          "name": "",
          "type": "address"
        }
      ],
      "stateMutability": "view",
      "type": "function"
    },
    {
      "inputs": [],
      "name": "pause",
      "outputs": [],
      "stateMutability": "nonpayable",
      "type": "function"
    },
    {
      "inputs": [],
      "name": "paused",
      "outputs": [
        {
          "internalType": "bool",
          "name": "",
          "type": "bool"
        }
      ],
      "stateMutability": "view",
      "type": "function"
    },
    {
      "inputs": [
        {
          "internalType": "string",
          "name": "_name",
          "type": "string"
        },
        {
          "internalType": "string",
          "name": "_symbol",
          "type": "string"
        },
        {
          "internalType": "address",
          "name": "_rewardToken",
          "type": "address"
        },
        {
          "internalType": "uint256",
          "name": "_rewardPerBlock",
          "type": "uint256"
        },
        {
          "internalType": "uint256",
          "name": "_startBlock",
          "type": "uint256"
        },
        {
          "internalType": "uint256",
          "name": "_endBlock",
          "type": "uint256"
        },
        {
          "internalType": "address",
          "name": "_stakeToken",
          "type": "address"
        },
        {
          "internalType": "uint256",
          "name": "_lockupDuration",
          "type": "uint256"
        },
        {
          "internalType": "uint256",
          "name": "_withdrawPeriod",
          "type": "uint256"
        },
        {
          "internalType": "address",
          "name": "_rewardDistributor",
          "type": "address"
        }
      ],
      "name": "registerPool",
      "outputs": [
        {
          "internalType": "address",
          "name": "pool",
          "type": "address"
        }
      ],
      "stateMutability": "nonpayable",
      "type": "function"
    },
    {
      "inputs": [],
      "name": "renounceOwnership",
      "outputs": [],
      "stateMutability": "nonpayable",
      "type": "function"
    },
    {
      "inputs": [
        {
          "internalType": "address",
          "name": "newOwner",
          "type": "address"
        }
      ],
      "name": "transferOwnership",
      "outputs": [],
      "stateMutability": "nonpayable",
      "type": "function"
    },
    {
      "inputs": [],
      "name": "unpause",
      "outputs": [],
      "stateMutability": "nonpayable",
      "type": "function"
    }
  ],
  "transactionHash": "0xd7a70ef8bf04212c28d4d925ea54cfeea22970f8b8386bd5cd2501f27bad645f",
  "args": [],
  "numDeployments": 1,
  "solcInputHash": "356b15c62ddc5da162b7cec49404f5f9",
  "bytecode": "0x608060405234801561001057600080fd5b5061364c806100206000396000f3fe608060405234801561001057600080fd5b50600436106100cf5760003560e01c80638129fc1c1161008c578063ae7a774b11610066578063ae7a774b146101a7578063d238d82a146101c7578063efde4e64146101da578063f2fde38b146101e257600080fd5b80638129fc1c146101865780638456cb591461018e5780638da5cb5b1461019657600080fd5b80633f4ba83a146100d457806341d1de97146100de5780635c975abb1461010e578063715018a61461012457806375a466641461012c5780637fd376091461013f575b600080fd5b6100dc6101f5565b005b6100f16100ec366004610a23565b610232565b6040516001600160a01b0390911681526020015b60405180910390f35b60655460ff166040519015158152602001610105565b6100dc61025c565b6100f161013a366004610a58565b610290565b61017861014d366004610a94565b6001600160a01b03918216600090815260986020908152604080832093909416825291909152205490565b604051908152602001610105565b6100dc6102d5565b6100dc610349565b6033546001600160a01b03166100f1565b6101ba6101b5366004610a94565b61037b565b6040516101059190610ac7565b6100f16101d5366004610bb7565b6103fe565b609754610178565b6100dc6101f0366004610c7f565b6106ed565b6033546001600160a01b031633146102285760405162461bcd60e51b815260040161021f90610ca1565b60405180910390fd5b610230610785565b565b6097818154811061024257600080fd5b6000918252602090912001546001600160a01b0316905081565b6033546001600160a01b031633146102865760405162461bcd60e51b815260040161021f90610ca1565b6102306000610818565b609860205282600052604060002060205281600052604060002081815481106102b857600080fd5b6000918252602090912001546001600160a01b0316925083915050565b600054610100900460ff16806102ee575060005460ff16155b61030a5760405162461bcd60e51b815260040161021f90610cd6565b600054610100900460ff1615801561032c576000805461ffff19166101011790555b61033461086a565b8015610346576000805461ff00191690555b50565b6033546001600160a01b031633146103735760405162461bcd60e51b815260040161021f90610ca1565b6102306108d1565b6001600160a01b0380831660009081526098602090815260408083209385168352928152908290208054835181840281018401909452808452606093928301828280156103f157602002820191906000526020600020905b81546001600160a01b031681526001909101906020018083116103d3575b5050505050905092915050565b600061040c60655460ff1690565b1561044c5760405162461bcd60e51b815260206004820152601060248201526f14185d5cd8589b194e881c185d5cd95960821b604482015260640161021f565b6001600160a01b0385166104725760405162461bcd60e51b815260040161021f90610d24565b6001600160a01b0389166104985760405162461bcd60e51b815260040161021f90610d24565b6000604051806020016104aa90610a16565b601f1982820381018352601f909101166040908152336000908152609860209081528282206001600160a01b038f168352905290812054919250906040516bffffffffffffffffffffffff1933606090811b821660208401528e901b16603482015260488101829052909150600090606801604051602081830303815290604052805190602001209050808351602085016000f59350836001600160a01b031663438491e78f8f8f8f8f8f8f8f8f8f6040518b63ffffffff1660e01b815260040161057e9a99989796959493929190610dbf565b600060405180830381600087803b15801561059857600080fd5b505af11580156105ac573d6000803e3d6000fd5b5050505060986000336001600160a01b03166001600160a01b0316815260200190815260200160002060008d6001600160a01b03166001600160a01b03168152602001908152602001600020849080600181540180825580915050600190039060005260206000200160009091909190916101000a8154816001600160a01b0302191690836001600160a01b031602179055506097849080600181540180825580915050600190039060005260206000200160009091909190916101000a8154816001600160a01b0302191690836001600160a01b031602179055507fff8439967133b164db4c57586583a2881ff16a2c0046a9bc709f0ff6a9805d02338f8f8f8c8960016097805490506106c19190610e37565b6040516106d49796959493929190610e5c565b60405180910390a15050509a9950505050505050505050565b6033546001600160a01b031633146107175760405162461bcd60e51b815260040161021f90610ca1565b6001600160a01b03811661077c5760405162461bcd60e51b815260206004820152602660248201527f4f776e61626c653a206e6577206f776e657220697320746865207a65726f206160448201526564647265737360d01b606482015260840161021f565b61034681610818565b60655460ff166107ce5760405162461bcd60e51b815260206004820152601460248201527314185d5cd8589b194e881b9bdd081c185d5cd95960621b604482015260640161021f565b6065805460ff191690557f5db9ee0a495bf2e6ff9c91a7834c1ba4fdd244a5e8aa4e537bd38aeae4b073aa335b6040516001600160a01b03909116815260200160405180910390a1565b603380546001600160a01b038381166001600160a01b0319831681179093556040519116919082907f8be0079c531659141344cd1fd0a4f28419497f9722a3daafe3b4186f6b6457e090600090a35050565b600054610100900460ff1680610883575060005460ff16155b61089f5760405162461bcd60e51b815260040161021f90610cd6565b600054610100900460ff161580156108c1576000805461ffff19166101011790555b6108c961094c565b6103346109b6565b60655460ff16156109175760405162461bcd60e51b815260206004820152601060248201526f14185d5cd8589b194e881c185d5cd95960821b604482015260640161021f565b6065805460ff191660011790557f62e78cea01bee320cd4e420270b5ea74000d11b0c9f74754ebdbfc544b05a2586107fb3390565b600054610100900460ff1680610965575060005460ff16155b6109815760405162461bcd60e51b815260040161021f90610cd6565b600054610100900460ff16158015610334576000805461ffff19166101011790558015610346576000805461ff001916905550565b600054610100900460ff16806109cf575060005460ff16155b6109eb5760405162461bcd60e51b815260040161021f90610cd6565b600054610100900460ff16158015610a0d576000805461ffff19166101011790555b61033433610818565b61276080610eb783390190565b600060208284031215610a3557600080fd5b5035919050565b80356001600160a01b0381168114610a5357600080fd5b919050565b600080600060608486031215610a6d57600080fd5b610a7684610a3c565b9250610a8460208501610a3c565b9150604084013590509250925092565b60008060408385031215610aa757600080fd5b610ab083610a3c565b9150610abe60208401610a3c565b90509250929050565b6020808252825182820181905260009190848201906040850190845b81811015610b085783516001600160a01b031683529284019291840191600101610ae3565b50909695505050505050565b634e487b7160e01b600052604160045260246000fd5b600082601f830112610b3b57600080fd5b813567ffffffffffffffff80821115610b5657610b56610b14565b604051601f8301601f19908116603f01168101908282118183101715610b7e57610b7e610b14565b81604052838152866020858801011115610b9757600080fd5b836020870160208301376000602085830101528094505050505092915050565b6000806000806000806000806000806101408b8d031215610bd757600080fd5b8a3567ffffffffffffffff80821115610bef57600080fd5b610bfb8e838f01610b2a565b9b5060208d0135915080821115610c1157600080fd5b50610c1e8d828e01610b2a565b995050610c2d60408c01610a3c565b975060608b0135965060808b0135955060a08b01359450610c5060c08c01610a3c565b935060e08b013592506101008b01359150610c6e6101208c01610a3c565b90509295989b9194979a5092959850565b600060208284031215610c9157600080fd5b610c9a82610a3c565b9392505050565b6020808252818101527f4f776e61626c653a2063616c6c6572206973206e6f7420746865206f776e6572604082015260600190565b6020808252602e908201527f496e697469616c697a61626c653a20636f6e747261637420697320616c72656160408201526d191e481a5b9a5d1a585b1a5e995960921b606082015260800190565b6020808252602e908201527f4e6f64655374616b696e67506f6f6c466163746f72793a206e6f7420616c6c6f60408201526d77207a65726f206164647265737360901b606082015260800190565b6000815180845260005b81811015610d9857602081850181015186830182015201610d7c565b81811115610daa576000602083870101525b50601f01601f19169290920160200192915050565b6000610140808352610dd38184018e610d72565b90508281036020840152610de7818d610d72565b6001600160a01b039b8c166040850152606084019a909a525050608081019690965260a086019490945291861660c085015260e08401526101008301529092166101209092019190915292915050565b600082821015610e5757634e487b7160e01b600052601160045260246000fd5b500390565b600060018060a01b03808a16835260e06020840152610e7e60e084018a610d72565b8381036040850152610e90818a610d72565b9782166060850152509485166080830152509190921660a082015260c00152939250505056fe608060405234801561001057600080fd5b50612740806100206000396000f3fe608060405234801561001057600080fd5b506004361061025e5760003560e01c80638ae39cac11610146578063b4569228116100c3578063e2c0fa9811610087578063e2c0fa981461052e578063e3161ddd1461054e578063ec4ed27314610556578063f2fde38b1461055f578063f430cf0d14610572578063f7c618c11461058557600080fd5b8063b4569228146104e4578063b4999e85146104f7578063bb872b4a14610500578063c713aa9414610513578063d0e30db01461052657600080fd5b8063a9f8d1811161010a578063a9f8d1811461048f578063aa55609514610498578063acc2166a146104ab578063ae169a50146104be578063b39426a1146104d157600080fd5b80638ae39cac146104515780638da5cb5b1461045a578063939d62371461046b57806395d89b4114610474578063a1809b951461047c57600080fd5b806338d07436116101df57806351ed6a30116101a357806351ed6a30146103ec5780635c975abb14610417578063633bc8bd1461042e578063715018a614610441578063771ff381146103465780638456cb591461044957600080fd5b806338d074361461036e5780633e5a9b11146103815780633f4ba83a146103c85780634774be74146103d0578063498a4c2d146103e357600080fd5b8063215f9baa11610226578063215f9baa146102b357806321ce919d146102d3578063243b442614610333578063251ea859146103485780632b2739e61461035b57600080fd5b806306fdde031461026357806310c640b81461028157806312eb4f9a146102985780631310dce9146102a15780631ada70a8146102aa575b600080fd5b61026b610598565b604051610278919061218e565b60405180910390f35b61028a60985481565b604051908152602001610278565b61028a60a55481565b61028a60995481565b61028a60a65481565b61028a6102c13660046121c6565b60a86020526000908152604090205481565b6103136102e13660046121e3565b60a260209081526000928352604080842090915290825290208054600182015460028301546003909301549192909184565b604080519485526020850193909352918301526060820152608001610278565b61034661034136600461220f565b610626565b005b6103466103563660046122cb565b610695565b6103466103693660046121e3565b6108ed565b61034661037c3660046123a1565b610a5e565b6103b361038f3660046121e3565b60a96020908152600092835260408084209091529082529020805460019091015482565b60408051928352602083019190915201610278565b610346610bae565b6103466103de3660046123d1565b610be2565b61028a60a35481565b6097546103ff906001600160a01b031681565b6040516001600160a01b039091168152602001610278565b60655460ff165b6040519015158152602001610278565b61041e61043c36600461220f565b610d45565b610346610da6565b610346610dda565b61028a60a05481565b6033546001600160a01b03166103ff565b61028a609b5481565b61026b610e0c565b61034661048a3660046121c6565b610e19565b61028a609a5481565b61028a6104a636600461241e565b610eb7565b60a1546103ff906001600160a01b031681565b61028a6104cc36600461220f565b610f08565b61028a6104df36600461220f565b61105a565b6103466104f23660046121e3565b611269565b61028a60a45481565b61034661050e36600461220f565b6113ab565b61034661052136600461220f565b6113e8565b610346611466565b61028a61053c3660046121c6565b60a76020526000908152604090205481565b610346611515565b61028a609c5481565b61034661056d3660046121c6565b611584565b61028a6105803660046121e3565b61161f565b609f546103ff906001600160a01b031681565b609d80546105a590612440565b80601f01602080910402602001604051908101604052809291908181526020018280546105d190612440565b801561061e5780601f106105f35761010080835404028352916020019161061e565b820191906000526020600020905b81548152906001019060200180831161060157829003601f168201915b505050505081565b6033546001600160a01b031633146106595760405162461bcd60e51b81526004016106509061247b565b60405180910390fd5b609c8190556040518181527fb3ec819eca7ad857fe0ac22af97db0cf5710cc80aa43f6c10cb8d7e96f30ff27906020015b60405180910390a150565b600054610100900460ff16806106ae575060005460ff16155b6106ca5760405162461bcd60e51b8152600401610650906124b0565b600054610100900460ff161580156106ec576000805461ffff19166101011790555b6106f46116ec565b6106fd32611584565b6001600160a01b0389166107695760405162461bcd60e51b815260206004820152602d60248201527f4e6f64655374616b696e67506f6f6c3a20696e76616c6964207265776172642060448201526c746f6b656e206164647265737360981b6064820152608401610650565b8587106107d25760405162461bcd60e51b815260206004820152603160248201527f4e6f64655374616b696e67506f6f6c3a20696e76616c696420737461727420626044820152706c6f636b206f7220656e6420626c6f636b60781b6064820152608401610650565b600083116107f25760405162461bcd60e51b8152600401610650906124fe565b600082116108125760405162461bcd60e51b81526004016106509061254a565b8a5161082590609d9060208e019061209d565b50895161083990609e9060208d019061209d565b50609f80546001600160a01b03808c166001600160a01b03199283161790925560a08a905560a389905560a488905560a685905560a584905560a18054928716929091169190911790554387106108925760a354610894565b435b609a55609780546001600160a01b0319166001600160a01b038716179055600060988190556099819055609c819055609b556108ce611515565b80156108e0576000805461ff00191690555b5050505050505050505050565b6033546001600160a01b031633146109175760405162461bcd60e51b81526004016106509061247b565b6001600160a01b038216600090815260a260209081526040808320848452909152902080546109975760405162461bcd60e51b815260206004820152602660248201527f4e6f64655374616b696e67506f6f6c3a206e6f646520616c72656164792064696044820152651cd8589b195960d21b6064820152608401610650565b61099f611515565b8054156109ea576000816002015464e8d4a51000609b546109c091906125ac565b6109ca91906125ce565b905080156109e8578082600301546109e291906125e5565b60038301555b505b60008155609b54610a019064e8d4a51000906125ac565b6002820155609954610a15906001906125ce565b6099556001600160a01b038316600090815260a76020526040902054610a3d906001906125ce565b6001600160a01b03909316600090815260a760205260409020929092555050565b33600090815260a26020908152604080832085845290915290208054610a8390610d45565b610add5760405162461bcd60e51b815260206004820152602560248201527f4e6f64655374616b696e67506f6f6c3a206e6f7420696e2077697468647261776044820152642074696d6560d81b6064820152608401610650565b6000816001015411610b495760405162461bcd60e51b815260206004820152602f60248201527f4e6f64655374616b696e67506f6f6c3a2068617665206e6f7420616e7920746f60448201526e6b656e20746f20776974686472617760881b6064820152608401610650565b6001810154610b588484611767565b609754610b6f906001600160a01b03163383611828565b60408051338152602081018390527f8192939cba8c40f95bc122092011c559019ec5eeaf176bc2ebb2909316bf7623910160405180910390a150505050565b6033546001600160a01b03163314610bd85760405162461bcd60e51b81526004016106509061247b565b610be0611890565b565b6033546001600160a01b03163314610c0c5760405162461bcd60e51b81526004016106509061247b565b438411610c765760405162461bcd60e51b815260206004820152603260248201527f4e6f64655374616b696e67506f6f6c3a20656e6420626c6f636b206d7573742060448201527131329033ba10313637b1b597373ab6b132b960711b6064820152608401610650565b60008311610c965760405162461bcd60e51b8152600401610650906124fe565b60008211610cb65760405162461bcd60e51b81526004016106509061254a565b610cbe611515565b60a085815560a485905560a684905560a583905560a180546001600160a01b0319166001600160a01b03841690811790915560408051888152602081018890529081018690526060810185905260808101919091527f28e4b6ba2ad67ce04c3af634042aa5281ecc5d9534a01d47ec2c711dabc2e648910160405180910390a15050505050565b600080610d5283436125ce565b9050600060a55460a654610d6691906125e5565b610d7090836125ac565b9050600060a55460a654610d8491906125e5565b610d8e90836125fd565b610d9890846125ce565b60a654111595945050505050565b6033546001600160a01b03163314610dd05760405162461bcd60e51b81526004016106509061247b565b610be06000611923565b6033546001600160a01b03163314610e045760405162461bcd60e51b81526004016106509061247b565b610be0611975565b609e80546105a590612440565b6033546001600160a01b03163314610e435760405162461bcd60e51b81526004016106509061247b565b6001600160a01b038116610e695760405162461bcd60e51b81526004016106509061261c565b60a180546001600160a01b0319166001600160a01b0383169081179091556040519081527f07011b0b15512f533140457fca55819676a0497d4afe5c3d7a3524d951a0c4c89060200161068a565b60008060a454118015610ecb575060a45482115b15610ef5578260a45411610ee0576000610eee565b8260a454610eee91906125ce565b9050610f02565b610eff83836125ce565b90505b92915050565b600080610f17609a5443610eb7565b9050610f21611515565b33600081815260a260209081526040808320878452909152812091610f46908661161f565b60006003840155609b54909150610f639064e8d4a51000906125ac565b60028301556000610f758685846119f0565b90508115610f9057610f9033610f8b83856125ce565b611c5a565b33600090815260a96020908152604080832089845290915290206001810154431015610fc957610fc4338260000154611c5a565b600081555b8115611016578354610fda9061105a565b6001820155805482908290600090610ff39084906125e5565b90915550506001810154431061101657611011338260000154611c5a565b600081555b60408051338152602081018590527fc909a614430dd870655393d589db25896c60e5e9f85447cb19a437ddbb05eab1910160405180910390a1509095945050505050565b600081611068575043919050565b6110ba6040518060400160405280600b81526020016a1b5b33366d25731b5b306d60a81b8152506040518060400160405280600c81526020016b313637b1b597373ab6b132b960a11b81525043611d50565b61110a6040518060400160405280600b81526020016a1b5b33366d25731b5b306d60a81b8152506040518060400160405280600a8152602001695f737461727454696d6560b01b81525084611d50565b600061111683436125ce565b905061116e6040518060400160405280600b81526020016a1b5b33366d25731b5b306d60a81b8152506040518060400160405280600e81526020016d3637b1b5bab8223ab930ba34b7b760911b81525060a654611d50565b6111c46040518060400160405280600b81526020016a1b5b33366d25731b5b306d60a81b8152506040518060400160405280600e81526020016d1dda5d1a191c985dd4195c9a5bd960921b81525060a554611d50565b600060a55460a6546111d691906125e5565b6111e090836125ac565b90506112326040518060400160405280600b81526020016a1b5b33366d25731b5b306d60a81b8152506040518060400160405280600a81526020016936bab63a34b83634b2b960b11b81525083611d50565b60a55460a65461124291906125e5565b61124d8260016125e5565b61125791906125fd565b61126190856125e5565b949350505050565b6033546001600160a01b031633146112935760405162461bcd60e51b81526004016106509061247b565b6001600160a01b038216600090815260a26020908152604080832084845290915290208054156113135760405162461bcd60e51b815260206004820152602560248201527f4e6f64655374616b696e67506f6f6c3a206e6f646520616c726561647920656e60448201526418589b195960da1b6064820152608401610650565b61131b611515565b4381556001600160a01b038316600090815260a760205260409020546113429060016125e5565b6001600160a01b038416600090815260a760205260409020556099546113699060016125e5565b60995560408051338152602081018490527f9f5c381a77d6717003e7e9e8398484921af2bf9c87d29dc9655a059ff236434c91015b60405180910390a1505050565b6113b3611515565b60a08190556040518181527f22c0456177178fec69cb519ce05c0f0b39708187e616a82ceea49f84e19169cd9060200161068a565b6033546001600160a01b031633146114125760405162461bcd60e51b81526004016106509061247b565b4381116114315760405162461bcd60e51b81526004016106509061261c565b60a48190556040518181527f1132c5baccb51da3d049fabc819697dc845fa224ad59d9b555507d6446b408509060200161068a565b609c5433600090815260a8602052604081208054908261148583612667565b9091555033600090815260a260209081526040808320848452909152902060018101849055609854919250906114bc9084906125e5565b6098556097546114d7906001600160a01b0316333086611d97565b60408051338152602081018590529081018390527fb838602e00ba1ae3d80d6b2e623fc766c121b79cc8d3e3a97582ee6eeb2095599060600161139e565b609a54431161152057565b60995461152d5743609a55565b600061153b609a5443610eb7565b9050600060a0548261154d91906125fd565b60995490915061156264e8d4a51000836125fd565b61156c91906125ac565b609b5461157991906125e5565b609b55505043609a55565b6033546001600160a01b031633146115ae5760405162461bcd60e51b81526004016106509061247b565b6001600160a01b0381166116135760405162461bcd60e51b815260206004820152602660248201527f4f776e61626c653a206e6577206f776e657220697320746865207a65726f206160448201526564647265737360d01b6064820152608401610650565b61161c81611923565b50565b6001600160a01b038216600090815260a2602090815260408083208484529091528120609b548154158015906116565750609a5443115b8015611663575060995415155b156116b6576000611676609a5443610eb7565b9050600060a0548261168891906125fd565b60995490915061169d64e8d4a51000836125fd565b6116a791906125ac565b6116b190846125e5565b925050505b60028201546116ca64e8d4a51000836125ac565b6116d491906125ce565b82600301546116e391906125e5565b95945050505050565b600054610100900460ff1680611705575060005460ff16155b6117215760405162461bcd60e51b8152600401610650906124b0565b600054610100900460ff16158015611743576000805461ffff19166101011790555b61174b611dd5565b611753611e3f565b801561161c576000805461ff001916905550565b33600090815260a26020908152604080832085845290915290206001810154821561179b5761179584610f08565b506117ee565b6117a3611515565b8154156117ee576000826002015464e8d4a51000609b546117c491906125ac565b6117ce91906125ce565b905080156117ec578083600301546117e691906125e5565b60038401555b505b6000600183018190558255609b5461180c9064e8d4a51000906125ac565b600283015560985461181f9082906125ce565b60985550505050565b6040516001600160a01b03831660248201526044810182905261188b90849063a9059cbb60e01b906064015b60408051601f198184030181529190526020810180516001600160e01b03166001600160e01b031990931692909217909152611e9f565b505050565b60655460ff166118d95760405162461bcd60e51b815260206004820152601460248201527314185d5cd8589b194e881b9bdd081c185d5cd95960621b6044820152606401610650565b6065805460ff191690557f5db9ee0a495bf2e6ff9c91a7834c1ba4fdd244a5e8aa4e537bd38aeae4b073aa335b6040516001600160a01b03909116815260200160405180910390a1565b603380546001600160a01b038381166001600160a01b0319831681179093556040519116919082907f8be0079c531659141344cd1fd0a4f28419497f9722a3daafe3b4186f6b6457e090600090a35050565b60655460ff16156119bb5760405162461bcd60e51b815260206004820152601060248201526f14185d5cd8589b194e881c185d5cd95960821b6044820152606401610650565b6065805460ff191660011790557f62e78cea01bee320cd4e420270b5ea74000d11b0c9f74754ebdbfc544b05a2586119063390565b6000808311611a5c5760405162461bcd60e51b815260206004820152603260248201527f4e6f64655374616b696e67506f6f6c3a207374616b652074696d65206d75737460448201527102062652067726561746572207468616e20360741b6064820152608401610650565b33600090815260a26020908152604080832087845290915290208054611aea5760405162461bcd60e51b815260206004820152603760248201527f4e6f64655374616b696e67506f6f6c3a204e6f64655374616b696e67506f6f6c60448201527f3a206e6f646520616c72656164792064697361626c65640000000000000000006064820152608401610650565b6000611af98260000154610d45565b905080611b0b57600092505050611c53565b6000611b1a836000015461105a565b9050611b726040518060400160405280600b81526020016a1b5b33366d25731b5b306d60a81b8152506040518060400160405280600e81526020016d1dda5d1a191c985dd4195c9a5bd960921b81525060a554611d50565b611bc76040518060400160405280600b81526020016a1b5b33366d25731b5b306d60a81b8152506040518060400160405280600f81526020016e6e6578744c6f636b696e6754696d6560881b81525083611d50565b611c196040518060400160405280600b81526020016a1b5b33366d25731b5b306d60a81b8152506040518060400160405280600c81526020016b313637b1b597373ab6b132b960a11b81525043611d50565b6000611c2543836125ce565b60a554611c3291906125ce565b9050600087611c4188846125fd565b611c4b91906125ac565b955050505050505b9392505050565b609f5460a1546040516370a0823160e01b81526001600160a01b03918216600482015260009291909116906370a0823190602401602060405180830381865afa158015611cab573d6000803e3d6000fd5b505050506040513d601f19601f82011682018060405250810190611ccf9190612682565b905080821115611d325760405162461bcd60e51b815260206004820152602860248201527f4e6f64655374616b696e67506f6f6c3a206e6f7420656e6f75676820726577616044820152673932103a37b5b2b760c11b6064820152608401610650565b60a154609f5461188b916001600160a01b0391821691168585611d97565b61188b838383604051602401611d689392919061269b565b60408051601f198184030181529190526020810180516001600160e01b031663f362ca5960e01b179052611f71565b6040516001600160a01b0380851660248301528316604482015260648101829052611dcf9085906323b872dd60e01b90608401611854565b50505050565b600054610100900460ff1680611dee575060005460ff16155b611e0a5760405162461bcd60e51b8152600401610650906124b0565b600054610100900460ff16158015611753576000805461ffff1916610101179055801561161c576000805461ff001916905550565b600054610100900460ff1680611e58575060005460ff16155b611e745760405162461bcd60e51b8152600401610650906124b0565b600054610100900460ff16158015611e96576000805461ffff19166101011790555b61175333611923565b6000611ef4826040518060400160405280602081526020017f5361666545524332303a206c6f772d6c6576656c2063616c6c206661696c6564815250856001600160a01b0316611f929092919063ffffffff16565b80519091501561188b5780806020019051810190611f1291906126d1565b61188b5760405162461bcd60e51b815260206004820152602a60248201527f5361666545524332303a204552433230206f7065726174696f6e20646964206e6044820152691bdd081cdd58d8d9595960b21b6064820152608401610650565b80516a636f6e736f6c652e6c6f67602083016000808483855afa5050505050565b6060611261848460008585843b611feb5760405162461bcd60e51b815260206004820152601d60248201527f416464726573733a2063616c6c20746f206e6f6e2d636f6e74726163740000006044820152606401610650565b600080866001600160a01b0316858760405161200791906126ee565b60006040518083038185875af1925050503d8060008114612044576040519150601f19603f3d011682016040523d82523d6000602084013e612049565b606091505b5091509150612059828286612064565b979650505050505050565b60608315612073575081611c53565b8251156120835782518084602001fd5b8160405162461bcd60e51b8152600401610650919061218e565b8280546120a990612440565b90600052602060002090601f0160209004810192826120cb5760008555612111565b82601f106120e457805160ff1916838001178555612111565b82800160010185558215612111579182015b828111156121115782518255916020019190600101906120f6565b5061211d929150612121565b5090565b5b8082111561211d5760008155600101612122565b60005b83811015612151578181015183820152602001612139565b83811115611dcf5750506000910152565b6000815180845261217a816020860160208601612136565b601f01601f19169290920160200192915050565b602081526000610eff6020830184612162565b6001600160a01b038116811461161c57600080fd5b80356121c1816121a1565b919050565b6000602082840312156121d857600080fd5b8135611c53816121a1565b600080604083850312156121f657600080fd5b8235612201816121a1565b946020939093013593505050565b60006020828403121561222157600080fd5b5035919050565b634e487b7160e01b600052604160045260246000fd5b600082601f83011261224f57600080fd5b813567ffffffffffffffff8082111561226a5761226a612228565b604051601f8301601f19908116603f0116810190828211818310171561229257612292612228565b816040528381528660208588010111156122ab57600080fd5b836020870160208301376000602085830101528094505050505092915050565b6000806000806000806000806000806101408b8d0312156122eb57600080fd5b8a3567ffffffffffffffff8082111561230357600080fd5b61230f8e838f0161223e565b9b5060208d013591508082111561232557600080fd5b506123328d828e0161223e565b99505061234160408c016121b6565b975060608b0135965060808b0135955060a08b0135945061236460c08c016121b6565b935061237260e08c016121b6565b92506101008b013591506101208b013590509295989b9194979a5092959850565b801515811461161c57600080fd5b600080604083850312156123b457600080fd5b8235915060208301356123c681612393565b809150509250929050565b600080600080600060a086880312156123e957600080fd5b853594506020860135935060408601359250606086013591506080860135612410816121a1565b809150509295509295909350565b6000806040838503121561243157600080fd5b50508035926020909101359150565b600181811c9082168061245457607f821691505b6020821081141561247557634e487b7160e01b600052602260045260246000fd5b50919050565b6020808252818101527f4f776e61626c653a2063616c6c6572206973206e6f7420746865206f776e6572604082015260600190565b6020808252602e908201527f496e697469616c697a61626c653a20636f6e747261637420697320616c72656160408201526d191e481a5b9a5d1a585b1a5e995960921b606082015260800190565b6020808252602c908201527f4e6f64655374616b696e67506f6f6c3a206c6f636b75704475726174696f6e2060408201526b06d75737420626520677420360a41b606082015260800190565b6020808252602c908201527f4e6f64655374616b696e67506f6f6c3a207769746864726177506572696f642060408201526b06d75737420626520677420360a41b606082015260800190565b634e487b7160e01b600052601160045260246000fd5b6000826125c957634e487b7160e01b600052601260045260246000fd5b500490565b6000828210156125e0576125e0612596565b500390565b600082198211156125f8576125f8612596565b500190565b600081600019048311821515161561261757612617612596565b500290565b6020808252602b908201527f4e6f64655374616b696e67506f6f6c3a20696e76616c6964207265776172642060408201526a3234b9ba3934b13aba37b960a91b606082015260800190565b600060001982141561267b5761267b612596565b5060010190565b60006020828403121561269457600080fd5b5051919050565b6060815260006126ae6060830186612162565b82810360208401526126c08186612162565b915050826040830152949350505050565b6000602082840312156126e357600080fd5b8151611c5381612393565b60008251612700818460208701612136565b919091019291505056fea2646970667358221220edda32d0289c05748cafcc600873a7d7be43577f07992c1af6397cc69ed9865164736f6c634300080b0033a264697066735822122024aa5d9ddee2b944035c73eea351758b7f8e6c74273bc71a61f37bb882e5d75164736f6c634300080b0033",
  "devdoc": {
    "kind": "dev",
    "methods": {
      "allPoolsLength()": {
        "returns": {
          "_0": "Return number of created pools"
        }
      },
      "getCreatedPoolsByToken(address,address)": {
        "details": "User can retrieve their created pool by address of tokens",
        "params": {
          "_creator": "Address of created pool user",
          "_token": "Address of token want to query"
        },
        "returns": {
          "_0": "Created NodeStakingPool Address"
        }
      },
      "getCreatedPoolsLengthByToken(address,address)": {
        "params": {
          "_creator": "Address of created pool user",
          "_token": "Address of token want to query"
        },
        "returns": {
          "_0": "Return number of created pool"
        }
      },
      "owner()": {
        "details": "Returns the address of the current owner."
      },
      "paused()": {
        "details": "Returns true if the contract is paused, and false otherwise."
      },
      "registerPool(string,string,address,uint256,uint256,uint256,address,uint256,uint256,address)": {
        "details": "To register, you MUST have an ERC20 token"
      },
      "renounceOwnership()": {
        "details": "Leaves the contract without owner. It will not be possible to call `onlyOwner` functions anymore. Can only be called by the current owner. NOTE: Renouncing ownership will leave the contract without an owner, thereby removing any functionality that is only available to the owner."
      },
      "transferOwnership(address)": {
        "details": "Transfers ownership of the contract to a new account (`newOwner`). Can only be called by the current owner."
      }
    },
    "version": 1
  },
  "userdoc": {
    "kind": "user",
    "methods": {
      "allPoolsLength()": {
        "notice": "Get the number of all created pools"
      },
      "getCreatedPoolsByToken(address,address)": {
        "notice": "Get the created pools by token address"
      },
      "getCreatedPoolsLengthByToken(address,address)": {
        "notice": "Retrieve number of pools created for specific token"
      },
      "pause()": {
        "notice": "Pause contract"
      },
      "registerPool(string,string,address,uint256,uint256,uint256,address,uint256,uint256,address)": {
        "notice": "Register NodeStakingPool for tokens"
      },
      "unpause()": {
        "notice": "Unpause contract"
      }
    },
    "version": 1
  },
  "storageLayout": {
    "storage": [
      {
        "astId": 130,
        "contract": "contracts/NodeStakingFactory.sol:NodeStakingPoolFactory",
        "label": "_initialized",
        "offset": 0,
        "slot": "0",
        "type": "t_bool"
      },
      {
        "astId": 133,
        "contract": "contracts/NodeStakingFactory.sol:NodeStakingPoolFactory",
        "label": "_initializing",
        "offset": 1,
        "slot": "0",
        "type": "t_bool"
      },
      {
        "astId": 1001,
        "contract": "contracts/NodeStakingFactory.sol:NodeStakingPoolFactory",
        "label": "__gap",
        "offset": 0,
        "slot": "1",
        "type": "t_array(t_uint256)50_storage"
      },
      {
        "astId": 10,
        "contract": "contracts/NodeStakingFactory.sol:NodeStakingPoolFactory",
        "label": "_owner",
        "offset": 0,
        "slot": "51",
        "type": "t_address"
      },
      {
        "astId": 123,
        "contract": "contracts/NodeStakingFactory.sol:NodeStakingPoolFactory",
        "label": "__gap",
        "offset": 0,
        "slot": "52",
        "type": "t_array(t_uint256)49_storage"
      },
      {
        "astId": 191,
        "contract": "contracts/NodeStakingFactory.sol:NodeStakingPoolFactory",
        "label": "_paused",
        "offset": 0,
        "slot": "101",
        "type": "t_bool"
      },
      {
        "astId": 282,
        "contract": "contracts/NodeStakingFactory.sol:NodeStakingPoolFactory",
        "label": "__gap",
        "offset": 0,
        "slot": "102",
        "type": "t_array(t_uint256)49_storage"
      },
      {
        "astId": 3937,
        "contract": "contracts/NodeStakingFactory.sol:NodeStakingPoolFactory",
        "label": "allPools",
        "offset": 0,
        "slot": "151",
        "type": "t_array(t_address)dyn_storage"
      },
      {
        "astId": 3944,
        "contract": "contracts/NodeStakingFactory.sol:NodeStakingPoolFactory",
        "label": "getPools",
        "offset": 0,
        "slot": "152",
        "type": "t_mapping(t_address,t_mapping(t_address,t_array(t_address)dyn_storage))"
      }
    ],
    "types": {
      "t_address": {
        "encoding": "inplace",
        "label": "address",
        "numberOfBytes": "20"
      },
      "t_array(t_address)dyn_storage": {
        "base": "t_address",
        "encoding": "dynamic_array",
        "label": "address[]",
        "numberOfBytes": "32"
      },
      "t_array(t_uint256)49_storage": {
        "base": "t_uint256",
        "encoding": "inplace",
        "label": "uint256[49]",
        "numberOfBytes": "1568"
      },
      "t_array(t_uint256)50_storage": {
        "base": "t_uint256",
        "encoding": "inplace",
        "label": "uint256[50]",
        "numberOfBytes": "1600"
      },
      "t_bool": {
        "encoding": "inplace",
        "label": "bool",
        "numberOfBytes": "1"
      },
      "t_mapping(t_address,t_array(t_address)dyn_storage)": {
        "encoding": "mapping",
        "key": "t_address",
        "label": "mapping(address => address[])",
        "numberOfBytes": "32",
        "value": "t_array(t_address)dyn_storage"
      },
      "t_mapping(t_address,t_mapping(t_address,t_array(t_address)dyn_storage))": {
        "encoding": "mapping",
        "key": "t_address",
        "label": "mapping(address => mapping(address => address[]))",
        "numberOfBytes": "32",
        "value": "t_mapping(t_address,t_array(t_address)dyn_storage)"
      },
      "t_uint256": {
        "encoding": "inplace",
        "label": "uint256",
        "numberOfBytes": "32"
      }
    }
  }
}