{
  "address": "0xfe561eF1615e2fd3E80795b11Ee9100817bbf583",
  "abi": [
    {
      "anonymous": false,
      "inputs": [
        {
          "indexed": false,
          "internalType": "address",
          "name": "treasury",
          "type": "address"
        }
      ],
      "name": "ChangeTreasury",
      "type": "event"
    },
    {
      "anonymous": false,
      "inputs": [
        {
          "indexed": true,
          "internalType": "address",
          "name": "previousOwner",
          "type": "address"
        },
        {
          "indexed": true,
          "internalType": "address",
          "name": "newOwner",
          "type": "address"
        }
      ],
      "name": "OwnershipTransferred",
      "type": "event"
    },
    {
      "anonymous": false,
      "inputs": [
        {
          "indexed": false,
          "internalType": "address",
          "name": "account",
          "type": "address"
        }
      ],
      "name": "Paused",
      "type": "event"
    },
    {
      "anonymous": false,
      "inputs": [
        {
          "indexed": false,
          "internalType": "address",
          "name": "payer",
          "type": "address"
        },
        {
          "indexed": false,
          "internalType": "address",
          "name": "token",
          "type": "address"
        },
        {
          "indexed": false,
          "internalType": "uint256",
          "name": "amount",
          "type": "uint256"
        },
        {
          "indexed": false,
          "internalType": "uint256",
          "name": "discount",
          "type": "uint256"
        },
        {
          "indexed": false,
          "internalType": "enum Payment.PaymentType",
          "name": "paymentType",
          "type": "uint8"
        },
        {
          "indexed": false,
          "internalType": "uint256",
          "name": "paymentId",
          "type": "uint256"
        }
      ],
      "name": "Payment",
      "type": "event"
    },
    {
      "anonymous": false,
      "inputs": [
        {
          "indexed": false,
          "internalType": "enum Payment.PaymentType",
          "name": "paymentType",
          "type": "uint8"
        },
        {
          "indexed": false,
          "internalType": "address",
          "name": "token",
          "type": "address"
        },
        {
          "indexed": false,
          "internalType": "uint256",
          "name": "discount",
          "type": "uint256"
        }
      ],
      "name": "SetDiscount",
      "type": "event"
    },
    {
      "anonymous": false,
      "inputs": [
        {
          "indexed": false,
          "internalType": "enum Payment.PaymentType",
          "name": "paymentType",
          "type": "uint8"
        },
        {
          "indexed": false,
          "internalType": "address",
          "name": "token",
          "type": "address"
        },
        {
          "indexed": false,
          "internalType": "uint256",
          "name": "amount",
          "type": "uint256"
        }
      ],
      "name": "SetPayAmount",
      "type": "event"
    },
    {
      "anonymous": false,
      "inputs": [
        {
          "indexed": false,
          "internalType": "address",
          "name": "account",
          "type": "address"
        }
      ],
      "name": "Unpaused",
      "type": "event"
    },
    {
      "inputs": [],
      "name": "HUNDRED_PERCENT",
      "outputs": [
        {
          "internalType": "uint256",
          "name": "",
          "type": "uint256"
        }
      ],
      "stateMutability": "view",
      "type": "function"
    },
    {
      "inputs": [
        {
          "internalType": "address",
          "name": "_treasury",
          "type": "address"
        }
      ],
      "name": "changeTreasury",
      "outputs": [],
      "stateMutability": "nonpayable",
      "type": "function"
    },
    {
      "inputs": [
        {
          "internalType": "enum Payment.PaymentType",
          "name": "",
          "type": "uint8"
        },
        {
          "internalType": "address",
          "name": "",
          "type": "address"
        }
      ],
      "name": "discount",
      "outputs": [
        {
          "internalType": "uint256",
          "name": "",
          "type": "uint256"
        }
      ],
      "stateMutability": "view",
      "type": "function"
    },
    {
      "inputs": [
        {
          "internalType": "enum Payment.PaymentType",
          "name": "_type",
          "type": "uint8"
        },
        {
          "internalType": "address",
          "name": "_token",
          "type": "address"
        }
      ],
      "name": "getDiscountAmount",
      "outputs": [
        {
          "internalType": "uint256",
          "name": "",
          "type": "uint256"
        }
      ],
      "stateMutability": "nonpayable",
      "type": "function"
    },
    {
      "inputs": [
        {
          "internalType": "enum Payment.PaymentType",
          "name": "_type",
          "type": "uint8"
        },
        {
          "internalType": "address",
          "name": "_token",
          "type": "address"
        }
      ],
      "name": "getPayAmount",
      "outputs": [
        {
          "internalType": "uint256",
          "name": "",
          "type": "uint256"
        }
      ],
      "stateMutability": "nonpayable",
      "type": "function"
    },
    {
      "inputs": [
        {
          "internalType": "address",
          "name": "_treasury",
          "type": "address"
        }
      ],
      "name": "initialize",
      "outputs": [],
      "stateMutability": "nonpayable",
      "type": "function"
    },
    {
      "inputs": [],
      "name": "owner",
      "outputs": [
        {
          "internalType": "address",
          "name": "",
          "type": "address"
        }
      ],
      "stateMutability": "view",
      "type": "function"
    },
    {
      "inputs": [],
      "name": "pause",
      "outputs": [],
      "stateMutability": "nonpayable",
      "type": "function"
    },
    {
      "inputs": [],
      "name": "paused",
      "outputs": [
        {
          "internalType": "bool",
          "name": "",
          "type": "bool"
        }
      ],
      "stateMutability": "view",
      "type": "function"
    },
    {
      "inputs": [
        {
          "internalType": "enum Payment.PaymentType",
          "name": "_type",
          "type": "uint8"
        },
        {
          "internalType": "address",
          "name": "_token",
          "type": "address"
        },
        {
          "internalType": "uint256",
          "name": "_paymentId",
          "type": "uint256"
        }
      ],
      "name": "pay",
      "outputs": [],
      "stateMutability": "payable",
      "type": "function"
    },
    {
      "inputs": [
        {
          "internalType": "enum Payment.PaymentType",
          "name": "",
          "type": "uint8"
        },
        {
          "internalType": "address",
          "name": "",
          "type": "address"
        }
      ],
      "name": "payAmount",
      "outputs": [
        {
          "internalType": "uint256",
          "name": "",
          "type": "uint256"
        }
      ],
      "stateMutability": "view",
      "type": "function"
    },
    {
      "inputs": [],
      "name": "renounceOwnership",
      "outputs": [],
      "stateMutability": "nonpayable",
      "type": "function"
    },
    {
      "inputs": [
        {
          "internalType": "enum Payment.PaymentType",
          "name": "_type",
          "type": "uint8"
        },
        {
          "internalType": "address",
          "name": "_token",
          "type": "address"
        },
        {
          "internalType": "uint256",
          "name": "_discount",
          "type": "uint256"
        }
      ],
      "name": "setDiscount",
      "outputs": [],
      "stateMutability": "nonpayable",
      "type": "function"
    },
    {
      "inputs": [
        {
          "internalType": "enum Payment.PaymentType",
          "name": "_type",
          "type": "uint8"
        },
        {
          "internalType": "address",
          "name": "_token",
          "type": "address"
        },
        {
          "internalType": "uint256",
          "name": "_amount",
          "type": "uint256"
        }
      ],
      "name": "setPayAmount",
      "outputs": [],
      "stateMutability": "nonpayable",
      "type": "function"
    },
    {
      "inputs": [
        {
          "internalType": "address",
          "name": "newOwner",
          "type": "address"
        }
      ],
      "name": "transferOwnership",
      "outputs": [],
      "stateMutability": "nonpayable",
      "type": "function"
    },
    {
      "inputs": [],
      "name": "treasury",
      "outputs": [
        {
          "internalType": "address",
          "name": "",
          "type": "address"
        }
      ],
      "stateMutability": "view",
      "type": "function"
    },
    {
      "inputs": [],
      "name": "unpause",
      "outputs": [],
      "stateMutability": "nonpayable",
      "type": "function"
    }
  ],
  "transactionHash": "0x79af3c086304581fc1bec1257491a9167577609e6ff1eafaed8acebda36c5cf4",
  "args": [],
  "numDeployments": 6,
  "solcInputHash": "ee01f3815c691061e4f5ee2b495fbf9c",
  "bytecode": "0x608060405234801561001057600080fd5b50610fb6806100206000396000f3fe6080604052600436106100fe5760003560e01c8063715018a611610095578063ad5ca0df11610064578063ad5ca0df146102bc578063b14f2a39146102cf578063c4d66de8146102ef578063e57532691461030f578063f2fde38b1461032f57600080fd5b8063715018a6146102545780638456cb59146102695780638da5cb5b1461027e578063a7345ea01461029c57600080fd5b80634635204e116100d15780634635204e146101bd5780635c975abb146101dd57806361d027b3146102005780636ed93dd01461023857600080fd5b806301faaebc1461010357806319866e181461014e5780632649c7e9146101865780633f4ba83a146101a8575b600080fd5b34801561010f57600080fd5b5061013b61011e366004610d57565b609960209081526000928352604080842090915290825290205481565b6040519081526020015b60405180910390f35b34801561015a57600080fd5b5061013b610169366004610d57565b609860209081526000928352604080842090915290825290205481565b34801561019257600080fd5b506101a66101a1366004610d8a565b61034f565b005b3480156101b457600080fd5b506101a661041f565b3480156101c957600080fd5b5061013b6101d8366004610d57565b610453565b3480156101e957600080fd5b5060655460ff166040519015158152602001610145565b34801561020c57600080fd5b50609754610220906001600160a01b031681565b6040516001600160a01b039091168152602001610145565b34801561024457600080fd5b5061013b670de0b6b3a764000081565b34801561026057600080fd5b506101a66104b6565b34801561027557600080fd5b506101a66104ea565b34801561028a57600080fd5b506033546001600160a01b0316610220565b3480156102a857600080fd5b5061013b6102b7366004610d57565b61051c565b6101a66102ca366004610d8a565b610534565b3480156102db57600080fd5b506101a66102ea366004610dc6565b610824565b3480156102fb57600080fd5b506101a661030a366004610dc6565b6108a2565b34801561031b57600080fd5b506101a661032a366004610d8a565b610932565b34801561033b57600080fd5b506101a661034a366004610dc6565b6109ec565b6033546001600160a01b031633146103825760405162461bcd60e51b815260040161037990610de8565b60405180910390fd5b806099600085600281111561039957610399610e1d565b60028111156103aa576103aa610e1d565b81526020019081526020016000206000846001600160a01b03166001600160a01b03168152602001908152602001600020819055507f0e0a418e89d036aeb82bc96d5cc15f3739e6be5b47b997169c14a6228c7b9cd983838360405161041293929190610e55565b60405180910390a1505050565b6033546001600160a01b031633146104495760405162461bcd60e51b815260040161037990610de8565b610451610a87565b565b60006098600084600281111561046b5761046b610e1d565b600281111561047c5761047c610e1d565b81526020019081526020016000206000836001600160a01b03166001600160a01b0316815260200190815260200160002054905092915050565b6033546001600160a01b031633146104e05760405162461bcd60e51b815260040161037990610de8565b6104516000610b1a565b6033546001600160a01b031633146105145760405162461bcd60e51b815260040161037990610de8565b610451610b6c565b60006099600084600281111561046b5761046b610e1d565b6001600160a01b0382166105da576098600084600281111561055857610558610e1d565b600281111561056957610569610e1d565b81526020808201929092526040908101600090812081805290925290205434146105d55760405162461bcd60e51b815260206004820152601d60248201527f5061796d656e743a206e6f742076616c69642070617920616d6f756e740000006044820152606401610379565b61073b565b6097546001600160a01b03808416916323b872dd91339116670de0b6b3a76400006099600089600281111561061157610611610e1d565b600281111561062257610622610e1d565b81526020019081526020016000206000886001600160a01b03166001600160a01b0316815260200190815260200160002054609860008a600281111561066a5761066a610e1d565b600281111561067b5761067b610e1d565b81526020019081526020016000206000896001600160a01b03166001600160a01b03168152602001908152602001600020546106b79190610e7d565b6106c19190610eaa565b6040516001600160e01b031960e086901b1681526001600160a01b03938416600482015292909116602483015260448201526064016020604051808303816000875af1158015610715573d6000803e3d6000fd5b505050506040513d601f19601f820116820180604052508101906107399190610ecc565b505b7f4ab375788c162f73c9137e00f6d1a2604ab45d2bb5ca481153db443676177ae533836098600087600281111561077457610774610e1d565b600281111561078557610785610e1d565b81526020019081526020016000206000866001600160a01b03166001600160a01b0316815260200190815260200160002054609960008860028111156107cd576107cd610e1d565b60028111156107de576107de610e1d565b81526020019081526020016000206000876001600160a01b03166001600160a01b0316815260200190815260200160002054878660405161041296959493929190610eee565b6033546001600160a01b0316331461084e5760405162461bcd60e51b815260040161037990610de8565b609780546001600160a01b0319166001600160a01b0383169081179091556040519081527f307e35806d2460623a3d217b5f70b195611f99aba68ed9df4ed39cf88ce2303f9060200160405180910390a150565b600054610100900460ff16806108bb575060005460ff16155b6108d75760405162461bcd60e51b815260040161037990610f32565b600054610100900460ff161580156108f9576000805461ffff19166101011790555b610901610be7565b609780546001600160a01b0319166001600160a01b038416179055801561092e576000805461ff00191690555b5050565b6033546001600160a01b0316331461095c5760405162461bcd60e51b815260040161037990610de8565b806098600085600281111561097357610973610e1d565b600281111561098457610984610e1d565b81526020019081526020016000206000846001600160a01b03166001600160a01b03168152602001908152602001600020819055507f6e4b0d11c01db3e6a2bec3c5e9925e5d73e8937563169b5e3be6adef3932294b83838360405161041293929190610e55565b6033546001600160a01b03163314610a165760405162461bcd60e51b815260040161037990610de8565b6001600160a01b038116610a7b5760405162461bcd60e51b815260206004820152602660248201527f4f776e61626c653a206e6577206f776e657220697320746865207a65726f206160448201526564647265737360d01b6064820152608401610379565b610a8481610b1a565b50565b60655460ff16610ad05760405162461bcd60e51b815260206004820152601460248201527314185d5cd8589b194e881b9bdd081c185d5cd95960621b6044820152606401610379565b6065805460ff191690557f5db9ee0a495bf2e6ff9c91a7834c1ba4fdd244a5e8aa4e537bd38aeae4b073aa335b6040516001600160a01b03909116815260200160405180910390a1565b603380546001600160a01b038381166001600160a01b0319831681179093556040519116919082907f8be0079c531659141344cd1fd0a4f28419497f9722a3daafe3b4186f6b6457e090600090a35050565b60655460ff1615610bb25760405162461bcd60e51b815260206004820152601060248201526f14185d5cd8589b194e881c185d5cd95960821b6044820152606401610379565b6065805460ff191660011790557f62e78cea01bee320cd4e420270b5ea74000d11b0c9f74754ebdbfc544b05a258610afd3390565b600054610100900460ff1680610c00575060005460ff16155b610c1c5760405162461bcd60e51b815260040161037990610f32565b600054610100900460ff16158015610c3e576000805461ffff19166101011790555b610c46610c62565b610c4e610ccc565b8015610a84576000805461ff001916905550565b600054610100900460ff1680610c7b575060005460ff16155b610c975760405162461bcd60e51b815260040161037990610f32565b600054610100900460ff16158015610c4e576000805461ffff19166101011790558015610a84576000805461ff001916905550565b600054610100900460ff1680610ce5575060005460ff16155b610d015760405162461bcd60e51b815260040161037990610f32565b600054610100900460ff16158015610d23576000805461ffff19166101011790555b610c4e33610b1a565b803560038110610d3b57600080fd5b919050565b80356001600160a01b0381168114610d3b57600080fd5b60008060408385031215610d6a57600080fd5b610d7383610d2c565b9150610d8160208401610d40565b90509250929050565b600080600060608486031215610d9f57600080fd5b610da884610d2c565b9250610db660208501610d40565b9150604084013590509250925092565b600060208284031215610dd857600080fd5b610de182610d40565b9392505050565b6020808252818101527f4f776e61626c653a2063616c6c6572206973206e6f7420746865206f776e6572604082015260600190565b634e487b7160e01b600052602160045260246000fd5b60038110610e5157634e487b7160e01b600052602160045260246000fd5b9052565b60608101610e638286610e33565b6001600160a01b0393909316602082015260400152919050565b6000816000190483118215151615610ea557634e487b7160e01b600052601160045260246000fd5b500290565b600082610ec757634e487b7160e01b600052601260045260246000fd5b500490565b600060208284031215610ede57600080fd5b81518015158114610de157600080fd5b6001600160a01b03878116825286166020820152604081018590526060810184905260c08101610f216080830185610e33565b8260a0830152979650505050505050565b6020808252602e908201527f496e697469616c697a61626c653a20636f6e747261637420697320616c72656160408201526d191e481a5b9a5d1a585b1a5e995960921b60608201526080019056fea2646970667358221220988adf52c0f6e3d0dd0092abd8d7f9360e916e9195e7ccdb39e5e747441a78b764736f6c634300080b0033",
  "devdoc": {
    "kind": "dev",
    "methods": {
      "owner()": {
        "details": "Returns the address of the current owner."
      },
      "paused()": {
        "details": "Returns true if the contract is paused, and false otherwise."
      },
      "renounceOwnership()": {
        "details": "Leaves the contract without owner. It will not be possible to call `onlyOwner` functions anymore. Can only be called by the current owner. NOTE: Renouncing ownership will leave the contract without an owner, thereby removing any functionality that is only available to the owner."
      },
      "transferOwnership(address)": {
        "details": "Transfers ownership of the contract to a new account (`newOwner`). Can only be called by the current owner."
      }
    },
    "version": 1
  },
  "userdoc": {
    "kind": "user",
    "methods": {
      "pause()": {
        "notice": "Pause contract"
      },
      "unpause()": {
        "notice": "Unpause contract"
      }
    },
    "version": 1
  },
  "storageLayout": {
    "storage": [
      {
        "astId": 130,
        "contract": "contracts/Payment.sol:Payment",
        "label": "_initialized",
        "offset": 0,
        "slot": "0",
        "type": "t_bool"
      },
      {
        "astId": 133,
        "contract": "contracts/Payment.sol:Payment",
        "label": "_initializing",
        "offset": 1,
        "slot": "0",
        "type": "t_bool"
      },
      {
        "astId": 1001,
        "contract": "contracts/Payment.sol:Payment",
        "label": "__gap",
        "offset": 0,
        "slot": "1",
        "type": "t_array(t_uint256)50_storage"
      },
      {
        "astId": 10,
        "contract": "contracts/Payment.sol:Payment",
        "label": "_owner",
        "offset": 0,
        "slot": "51",
        "type": "t_address"
      },
      {
        "astId": 123,
        "contract": "contracts/Payment.sol:Payment",
        "label": "__gap",
        "offset": 0,
        "slot": "52",
        "type": "t_array(t_uint256)49_storage"
      },
      {
        "astId": 191,
        "contract": "contracts/Payment.sol:Payment",
        "label": "_paused",
        "offset": 0,
        "slot": "101",
        "type": "t_bool"
      },
      {
        "astId": 282,
        "contract": "contracts/Payment.sol:Payment",
        "label": "__gap",
        "offset": 0,
        "slot": "102",
        "type": "t_array(t_uint256)49_storage"
      },
      {
        "astId": 4139,
        "contract": "contracts/Payment.sol:Payment",
        "label": "treasury",
        "offset": 0,
        "slot": "151",
        "type": "t_address"
      },
      {
        "astId": 4146,
        "contract": "contracts/Payment.sol:Payment",
        "label": "payAmount",
        "offset": 0,
        "slot": "152",
        "type": "t_mapping(t_enum(PaymentType)4137,t_mapping(t_address,t_uint256))"
      },
      {
        "astId": 4153,
        "contract": "contracts/Payment.sol:Payment",
        "label": "discount",
        "offset": 0,
        "slot": "153",
        "type": "t_mapping(t_enum(PaymentType)4137,t_mapping(t_address,t_uint256))"
      }
    ],
    "types": {
      "t_address": {
        "encoding": "inplace",
        "label": "address",
        "numberOfBytes": "20"
      },
      "t_array(t_uint256)49_storage": {
        "base": "t_uint256",
        "encoding": "inplace",
        "label": "uint256[49]",
        "numberOfBytes": "1568"
      },
      "t_array(t_uint256)50_storage": {
        "base": "t_uint256",
        "encoding": "inplace",
        "label": "uint256[50]",
        "numberOfBytes": "1600"
      },
      "t_bool": {
        "encoding": "inplace",
        "label": "bool",
        "numberOfBytes": "1"
      },
      "t_enum(PaymentType)4137": {
        "encoding": "inplace",
        "label": "enum Payment.PaymentType",
        "numberOfBytes": "1"
      },
      "t_mapping(t_address,t_uint256)": {
        "encoding": "mapping",
        "key": "t_address",
        "label": "mapping(address => uint256)",
        "numberOfBytes": "32",
        "value": "t_uint256"
      },
      "t_mapping(t_enum(PaymentType)4137,t_mapping(t_address,t_uint256))": {
        "encoding": "mapping",
        "key": "t_enum(PaymentType)4137",
        "label": "mapping(enum Payment.PaymentType => mapping(address => uint256))",
        "numberOfBytes": "32",
        "value": "t_mapping(t_address,t_uint256)"
      },
      "t_uint256": {
        "encoding": "inplace",
        "label": "uint256",
        "numberOfBytes": "32"
      }
    }
  }
}