{
  "address": "0x1c60907612D377ac825eCD9205E862f0C680B93C",
  "abi": [
    {
      "anonymous": false,
      "inputs": [
        {
          "indexed": true,
          "internalType": "address",
          "name": "owner",
          "type": "address"
        },
        {
          "indexed": true,
          "internalType": "address",
          "name": "spender",
          "type": "address"
        },
        {
          "indexed": false,
          "internalType": "uint256",
          "name": "value",
          "type": "uint256"
        }
      ],
      "name": "Approval",
      "type": "event"
    },
    {
      "anonymous": false,
      "inputs": [
        {
          "indexed": true,
          "internalType": "address",
          "name": "user",
          "type": "address"
        },
        {
          "indexed": true,
          "internalType": "bool",
          "name": "status",
          "type": "bool"
        }
      ],
      "name": "ChangeBlacklist",
      "type": "event"
    },
    {
      "anonymous": false,
      "inputs": [
        {
          "indexed": false,
          "internalType": "address",
          "name": "oldMinter",
          "type": "address"
        },
        {
          "indexed": false,
          "internalType": "address",
          "name": "newMinter",
          "type": "address"
        }
      ],
      "name": "MinterChanged",
      "type": "event"
    },
    {
      "anonymous": false,
      "inputs": [
        {
          "indexed": false,
          "internalType": "address",
          "name": "oldOwner",
          "type": "address"
        },
        {
          "indexed": false,
          "internalType": "address",
          "name": "newOwner",
          "type": "address"
        }
      ],
      "name": "OwnerChanged",
      "type": "event"
    },
    {
      "anonymous": false,
      "inputs": [
        {
          "indexed": false,
          "internalType": "address",
          "name": "account",
          "type": "address"
        }
      ],
      "name": "Paused",
      "type": "event"
    },
    {
      "anonymous": false,
      "inputs": [
        {
          "indexed": true,
          "internalType": "address",
          "name": "from",
          "type": "address"
        },
        {
          "indexed": true,
          "internalType": "address",
          "name": "to",
          "type": "address"
        },
        {
          "indexed": false,
          "internalType": "uint256",
          "name": "value",
          "type": "uint256"
        }
      ],
      "name": "Transfer",
      "type": "event"
    },
    {
      "anonymous": false,
      "inputs": [
        {
          "indexed": false,
          "internalType": "address",
          "name": "account",
          "type": "address"
        }
      ],
      "name": "Unpaused",
      "type": "event"
    },
    {
      "inputs": [
        {
          "internalType": "address[]",
          "name": "listAddress",
          "type": "address[]"
        }
      ],
      "name": "addBlackList",
      "outputs": [],
      "stateMutability": "nonpayable",
      "type": "function"
    },
    {
      "inputs": [
        {
          "internalType": "address",
          "name": "owner",
          "type": "address"
        },
        {
          "internalType": "address",
          "name": "spender",
          "type": "address"
        }
      ],
      "name": "allowance",
      "outputs": [
        {
          "internalType": "uint256",
          "name": "",
          "type": "uint256"
        }
      ],
      "stateMutability": "view",
      "type": "function"
    },
    {
      "inputs": [
        {
          "internalType": "address",
          "name": "spender",
          "type": "address"
        },
        {
          "internalType": "uint256",
          "name": "amount",
          "type": "uint256"
        }
      ],
      "name": "approve",
      "outputs": [
        {
          "internalType": "bool",
          "name": "",
          "type": "bool"
        }
      ],
      "stateMutability": "nonpayable",
      "type": "function"
    },
    {
      "inputs": [
        {
          "internalType": "address",
          "name": "account",
          "type": "address"
        }
      ],
      "name": "balanceOf",
      "outputs": [
        {
          "internalType": "uint256",
          "name": "",
          "type": "uint256"
        }
      ],
      "stateMutability": "view",
      "type": "function"
    },
    {
      "inputs": [
        {
          "internalType": "address",
          "name": "",
          "type": "address"
        }
      ],
      "name": "blacklist",
      "outputs": [
        {
          "internalType": "bool",
          "name": "",
          "type": "bool"
        }
      ],
      "stateMutability": "view",
      "type": "function"
    },
    {
      "inputs": [
        {
          "internalType": "address",
          "name": "account",
          "type": "address"
        },
        {
          "internalType": "uint256",
          "name": "amount",
          "type": "uint256"
        }
      ],
      "name": "burn",
      "outputs": [],
      "stateMutability": "nonpayable",
      "type": "function"
    },
    {
      "inputs": [],
      "name": "cap",
      "outputs": [
        {
          "internalType": "uint256",
          "name": "",
          "type": "uint256"
        }
      ],
      "stateMutability": "view",
      "type": "function"
    },
    {
      "inputs": [
        {
          "internalType": "address",
          "name": "newMinter",
          "type": "address"
        }
      ],
      "name": "changeMinter",
      "outputs": [],
      "stateMutability": "nonpayable",
      "type": "function"
    },
    {
      "inputs": [
        {
          "internalType": "address",
          "name": "newOwner",
          "type": "address"
        }
      ],
      "name": "changeOwner",
      "outputs": [],
      "stateMutability": "nonpayable",
      "type": "function"
    },
    {
      "inputs": [],
      "name": "decimals",
      "outputs": [
        {
          "internalType": "uint8",
          "name": "",
          "type": "uint8"
        }
      ],
      "stateMutability": "view",
      "type": "function"
    },
    {
      "inputs": [
        {
          "internalType": "address",
          "name": "spender",
          "type": "address"
        },
        {
          "internalType": "uint256",
          "name": "subtractedValue",
          "type": "uint256"
        }
      ],
      "name": "decreaseAllowance",
      "outputs": [
        {
          "internalType": "bool",
          "name": "",
          "type": "bool"
        }
      ],
      "stateMutability": "nonpayable",
      "type": "function"
    },
    {
      "inputs": [],
      "name": "getMinter",
      "outputs": [
        {
          "internalType": "address",
          "name": "",
          "type": "address"
        }
      ],
      "stateMutability": "view",
      "type": "function"
    },
    {
      "inputs": [],
      "name": "getOwner",
      "outputs": [
        {
          "internalType": "address",
          "name": "",
          "type": "address"
        }
      ],
      "stateMutability": "view",
      "type": "function"
    },
    {
      "inputs": [
        {
          "internalType": "address",
          "name": "spender",
          "type": "address"
        },
        {
          "internalType": "uint256",
          "name": "addedValue",
          "type": "uint256"
        }
      ],
      "name": "increaseAllowance",
      "outputs": [
        {
          "internalType": "bool",
          "name": "",
          "type": "bool"
        }
      ],
      "stateMutability": "nonpayable",
      "type": "function"
    },
    {
      "inputs": [
        {
          "internalType": "string",
          "name": "_name",
          "type": "string"
        },
        {
          "internalType": "string",
          "name": "_symbol",
          "type": "string"
        },
        {
          "internalType": "uint256",
          "name": "_capacity",
          "type": "uint256"
        }
      ],
      "name": "initialize",
      "outputs": [],
      "stateMutability": "nonpayable",
      "type": "function"
    },
    {
      "inputs": [
        {
          "internalType": "address",
          "name": "user",
          "type": "address"
        }
      ],
      "name": "isBlacklisted",
      "outputs": [
        {
          "internalType": "bool",
          "name": "",
          "type": "bool"
        }
      ],
      "stateMutability": "view",
      "type": "function"
    },
    {
      "inputs": [
        {
          "internalType": "address",
          "name": "user",
          "type": "address"
        },
        {
          "internalType": "uint256",
          "name": "amount",
          "type": "uint256"
        }
      ],
      "name": "mint",
      "outputs": [],
      "stateMutability": "nonpayable",
      "type": "function"
    },
    {
      "inputs": [],
      "name": "minter",
      "outputs": [
        {
          "internalType": "address",
          "name": "",
          "type": "address"
        }
      ],
      "stateMutability": "view",
      "type": "function"
    },
    {
      "inputs": [],
      "name": "name",
      "outputs": [
        {
          "internalType": "string",
          "name": "",
          "type": "string"
        }
      ],
      "stateMutability": "view",
      "type": "function"
    },
    {
      "inputs": [],
      "name": "owner",
      "outputs": [
        {
          "internalType": "address",
          "name": "",
          "type": "address"
        }
      ],
      "stateMutability": "view",
      "type": "function"
    },
    {
      "inputs": [],
      "name": "pause",
      "outputs": [],
      "stateMutability": "nonpayable",
      "type": "function"
    },
    {
      "inputs": [],
      "name": "paused",
      "outputs": [
        {
          "internalType": "bool",
          "name": "",
          "type": "bool"
        }
      ],
      "stateMutability": "view",
      "type": "function"
    },
    {
      "inputs": [
        {
          "internalType": "address[]",
          "name": "listAddress",
          "type": "address[]"
        }
      ],
      "name": "removeBlackList",
      "outputs": [],
      "stateMutability": "nonpayable",
      "type": "function"
    },
    {
      "inputs": [
        {
          "internalType": "uint256",
          "name": "_cap",
          "type": "uint256"
        }
      ],
      "name": "setCapacity",
      "outputs": [],
      "stateMutability": "nonpayable",
      "type": "function"
    },
    {
      "inputs": [],
      "name": "symbol",
      "outputs": [
        {
          "internalType": "string",
          "name": "",
          "type": "string"
        }
      ],
      "stateMutability": "view",
      "type": "function"
    },
    {
      "inputs": [],
      "name": "totalSupply",
      "outputs": [
        {
          "internalType": "uint256",
          "name": "",
          "type": "uint256"
        }
      ],
      "stateMutability": "view",
      "type": "function"
    },
    {
      "inputs": [
        {
          "internalType": "address",
          "name": "recipient",
          "type": "address"
        },
        {
          "internalType": "uint256",
          "name": "amount",
          "type": "uint256"
        }
      ],
      "name": "transfer",
      "outputs": [
        {
          "internalType": "bool",
          "name": "",
          "type": "bool"
        }
      ],
      "stateMutability": "nonpayable",
      "type": "function"
    },
    {
      "inputs": [
        {
          "internalType": "address",
          "name": "sender",
          "type": "address"
        },
        {
          "internalType": "address",
          "name": "recipient",
          "type": "address"
        },
        {
          "internalType": "uint256",
          "name": "amount",
          "type": "uint256"
        }
      ],
      "name": "transferFrom",
      "outputs": [
        {
          "internalType": "bool",
          "name": "",
          "type": "bool"
        }
      ],
      "stateMutability": "nonpayable",
      "type": "function"
    },
    {
      "inputs": [],
      "name": "unpause",
      "outputs": [],
      "stateMutability": "nonpayable",
      "type": "function"
    }
  ],
  "transactionHash": "0x48740851ff043d47516f3f08c4bd1a3c0cf4e16cb5143c30b55529ddecc60c13",
  "args": [],
  "numDeployments": 1,
  "solcInputHash": "a97db7a4f1b8bf2cf67d1154e6e712ae",
  "bytecode": "0x608060405234801561001057600080fd5b50611a42806100206000396000f3fe608060405234801561001057600080fd5b50600436106101cf5760003560e01c8063893d20e811610104578063a6f9dae1116100a2578063dd62ed3e11610071578063dd62ed3e146103c0578063f3667517146103f9578063f9f92be41461040a578063fe575a871461042d57600080fd5b8063a6f9dae114610374578063a9059cbb14610387578063b119490e1461039a578063d338faf3146103ad57600080fd5b806395d89b41116100de57806395d89b41146103335780639bf411351461033b5780639dc29fac1461034e578063a457c2d71461036157600080fd5b8063893d20e8146102fc5780638da5cb5b1461030d57806391915ef81461032057600080fd5b8063355274ea1161017157806340c10f191161014b57806340c10f19146102ad5780635c975abb146102c057806370a08231146102cb5780638456cb59146102f457600080fd5b8063355274ea1461028957806339509351146102925780633f4ba83a146102a557600080fd5b806318160ddd116101ad57806318160ddd1461024057806323b872dd146102525780632c4d4d1814610265578063313ce5671461027a57600080fd5b806306fdde03146101d457806307546172146101f2578063095ea7b31461021d575b600080fd5b6101dc61045e565b6040516101e991906115a4565b60405180910390f35b609954610205906001600160a01b031681565b6040516001600160a01b0390911681526020016101e9565b61023061022b366004611615565b6104f0565b60405190151581526020016101e9565b6035545b6040519081526020016101e9565b61023061026036600461163f565b610506565b61027861027336600461167b565b6105b5565b005b604051601281526020016101e9565b610244609a5481565b6102306102a0366004611615565b6106d8565b610278610714565b6102786102bb366004611615565b610748565b60655460ff16610230565b6102446102d936600461167b565b6001600160a01b031660009081526033602052604090205490565b610278610820565b6098546001600160a01b0316610205565b609854610205906001600160a01b031681565b61027861032e36600461169d565b610852565b6101dc6108cb565b6102786103493660046116fd565b6108da565b61027861035c366004611615565b610912565b61023061036f366004611615565b6109b0565b61027861038236600461167b565b610a49565b610230610395366004611615565b610b26565b6102786103a836600461181a565b610b33565b6102786103bb3660046116fd565b610bd3565b6102446103ce366004611887565b6001600160a01b03918216600090815260346020908152604080832093909416825291909152205490565b6099546001600160a01b0316610205565b61023061041836600461167b565b60976020526000908152604090205460ff1681565b61023061043b36600461167b565b6001600160a01b031660009081526097602052604090205460ff16151560011490565b60606036805461046d906118ba565b80601f0160208091040260200160405190810160405280929190818152602001828054610499906118ba565b80156104e65780601f106104bb576101008083540402835291602001916104e6565b820191906000526020600020905b8154815290600101906020018083116104c957829003601f168201915b5050505050905090565b60006104fd338484610c08565b50600192915050565b6000610513848484610d2c565b6001600160a01b03841660009081526034602090815260408083203384529091529020548281101561059d5760405162461bcd60e51b815260206004820152602860248201527f45524332303a207472616e7366657220616d6f756e74206578636565647320616044820152676c6c6f77616e636560c01b60648201526084015b60405180910390fd5b6105aa8533858403610c08565b506001949350505050565b60655460ff16156105d85760405162461bcd60e51b8152600401610594906118f5565b6099546001600160a01b031633146106255760405162461bcd60e51b815260206004820152601060248201526f2c21a71d1027a7262c9026a4a72a22a960811b6044820152606401610594565b6001600160a01b03811661066f5760405162461bcd60e51b815260206004820152601160248201527058434e3a205a45524f204144445245535360781b6044820152606401610594565b609954604080516001600160a01b03928316815291831660208301527f3b0007eb941cf645526cbb3a4fdaecda9d28ce4843167d9263b536a1f1edc0f6910160405180910390a1609980546001600160a01b0319166001600160a01b0392909216919091179055565b3360008181526034602090815260408083206001600160a01b038716845290915281205490916104fd91859061070f908690611935565b610c08565b6098546001600160a01b0316331461073e5760405162461bcd60e51b81526004016105949061194d565b610746610f05565b565b60655460ff161561076b5760405162461bcd60e51b8152600401610594906118f5565b6099546001600160a01b031633146107b85760405162461bcd60e51b815260206004820152601060248201526f2c21a71d1027a7262c9026a4a72a22a960811b6044820152606401610594565b609a54816107c560355490565b6107cf9190611935565b11156108125760405162461bcd60e51b815260206004820152601260248201527158434e3a2046554c4c20434150414349545960701b6044820152606401610594565b61081c8282610f98565b5050565b6098546001600160a01b0316331461084a5760405162461bcd60e51b81526004016105949061194d565b610746611083565b6098546001600160a01b0316331461087c5760405162461bcd60e51b81526004016105949061194d565b6035548110156108c65760405162461bcd60e51b815260206004820152601560248201527458434e3a20494e56414c494420434150414349545960581b6044820152606401610594565b609a55565b60606037805461046d906118ba565b6098546001600160a01b031633146109045760405162461bcd60e51b81526004016105949061194d565b61090f8160006110db565b50565b60655460ff16156109355760405162461bcd60e51b8152600401610594906118f5565b336001600160a01b038316146109a65760405162461bcd60e51b815260206004820152603060248201527f58434e3a2053454e4445522041444452455353204953204e4f54204d4154434860448201526f204143434f554e54204144445245535360801b6064820152608401610594565b61081c82826111a6565b3360009081526034602090815260408083206001600160a01b038616845290915281205482811015610a325760405162461bcd60e51b815260206004820152602560248201527f45524332303a2064656372656173656420616c6c6f77616e63652062656c6f77604482015264207a65726f60d81b6064820152608401610594565b610a3f3385858403610c08565b5060019392505050565b6098546001600160a01b03163314610a735760405162461bcd60e51b81526004016105949061194d565b6001600160a01b038116610abd5760405162461bcd60e51b815260206004820152601160248201527058434e3a205a45524f204144445245535360781b6044820152606401610594565b609854604080516001600160a01b03928316815291831660208301527fb532073b38c83145e3e5135377a08bf9aab55bc0fd7c1179cd4fb995d2a5159c910160405180910390a1609880546001600160a01b0319166001600160a01b0392909216919091179055565b60006104fd338484610d2c565b600054610100900460ff1680610b4c575060005460ff16155b610b685760405162461bcd60e51b815260040161059490611976565b600054610100900460ff16158015610b8a576000805461ffff19166101011790555b610b948484611300565b609a82905560988054336001600160a01b031991821681179092556099805490911690911790558015610bcd576000805461ff00191690555b50505050565b6098546001600160a01b03163314610bfd5760405162461bcd60e51b81526004016105949061194d565b61090f8160016110db565b6001600160a01b038316610c6a5760405162461bcd60e51b8152602060048201526024808201527f45524332303a20617070726f76652066726f6d20746865207a65726f206164646044820152637265737360e01b6064820152608401610594565b6001600160a01b038216610ccb5760405162461bcd60e51b815260206004820152602260248201527f45524332303a20617070726f766520746f20746865207a65726f206164647265604482015261737360f01b6064820152608401610594565b6001600160a01b0383811660008181526034602090815260408083209487168084529482529182902085905590518481527f8c5be1e5ebec7d5bd14f71427d1e84f3dd0314c0f7b2291e5b200ac8c7c3b925910160405180910390a3505050565b6001600160a01b038316610d905760405162461bcd60e51b815260206004820152602560248201527f45524332303a207472616e736665722066726f6d20746865207a65726f206164604482015264647265737360d81b6064820152608401610594565b6001600160a01b038216610df25760405162461bcd60e51b815260206004820152602360248201527f45524332303a207472616e7366657220746f20746865207a65726f206164647260448201526265737360e81b6064820152608401610594565b610dfd83838361137f565b6001600160a01b03831660009081526033602052604090205481811015610e755760405162461bcd60e51b815260206004820152602660248201527f45524332303a207472616e7366657220616d6f756e7420657863656564732062604482015265616c616e636560d01b6064820152608401610594565b6001600160a01b03808516600090815260336020526040808220858503905591851681529081208054849290610eac908490611935565b92505081905550826001600160a01b0316846001600160a01b03167fddf252ad1be2c89b69c2b068fc378daa952ba7f163c4a11628f55a4df523b3ef84604051610ef891815260200190565b60405180910390a3610bcd565b60655460ff16610f4e5760405162461bcd60e51b815260206004820152601460248201527314185d5cd8589b194e881b9bdd081c185d5cd95960621b6044820152606401610594565b6065805460ff191690557f5db9ee0a495bf2e6ff9c91a7834c1ba4fdd244a5e8aa4e537bd38aeae4b073aa335b6040516001600160a01b03909116815260200160405180910390a1565b6001600160a01b038216610fee5760405162461bcd60e51b815260206004820152601f60248201527f45524332303a206d696e7420746f20746865207a65726f2061646472657373006044820152606401610594565b610ffa6000838361137f565b806035600082825461100c9190611935565b90915550506001600160a01b03821660009081526033602052604081208054839290611039908490611935565b90915550506040518181526001600160a01b038316906000907fddf252ad1be2c89b69c2b068fc378daa952ba7f163c4a11628f55a4df523b3ef9060200160405180910390a35050565b60655460ff16156110a65760405162461bcd60e51b8152600401610594906118f5565b6065805460ff191660011790557f62e78cea01bee320cd4e420270b5ea74000d11b0c9f74754ebdbfc544b05a258610f7b3390565b60005b82518110156111a15781609760008584815181106110fe576110fe6119c4565b60200260200101516001600160a01b03166001600160a01b0316815260200190815260200160002060006101000a81548160ff021916908315150217905550811515838281518110611152576111526119c4565b60200260200101516001600160a01b03167f14c28d6d0fa0b5067384a85a55a3a3b01b50e6175382730ba66a21c587f0a83360405160405180910390a380611199816119da565b9150506110de565b505050565b6001600160a01b0382166112065760405162461bcd60e51b815260206004820152602160248201527f45524332303a206275726e2066726f6d20746865207a65726f206164647265736044820152607360f81b6064820152608401610594565b6112128260008361137f565b6001600160a01b038216600090815260336020526040902054818110156112865760405162461bcd60e51b815260206004820152602260248201527f45524332303a206275726e20616d6f756e7420657863656564732062616c616e604482015261636560f01b6064820152608401610594565b6001600160a01b03831660009081526033602052604081208383039055603580548492906112b59084906119f5565b90915550506040518281526000906001600160a01b038516907fddf252ad1be2c89b69c2b068fc378daa952ba7f163c4a11628f55a4df523b3ef9060200160405180910390a3505050565b600054610100900460ff1680611319575060005460ff16155b6113355760405162461bcd60e51b815260040161059490611976565b600054610100900460ff16158015611357576000805461ffff19166101011790555b61135f61140b565b6113698383611476565b80156111a1576000805461ff0019169055505050565b60655460ff16156113a25760405162461bcd60e51b8152600401610594906118f5565b6001600160a01b03831660009081526097602052604090205460ff16156111a15760405162461bcd60e51b815260206004820152601e60248201527f58434e3a20424c41434b4c4953542043414e4e4f54205452414e5346455200006044820152606401610594565b600054610100900460ff1680611424575060005460ff16155b6114405760405162461bcd60e51b815260040161059490611976565b600054610100900460ff16158015611462576000805461ffff19166101011790555b801561090f576000805461ff001916905550565b600054610100900460ff168061148f575060005460ff16155b6114ab5760405162461bcd60e51b815260040161059490611976565b600054610100900460ff161580156114cd576000805461ffff19166101011790555b82516114e090603690602086019061150b565b5081516114f490603790602085019061150b565b5080156111a1576000805461ff0019169055505050565b828054611517906118ba565b90600052602060002090601f016020900481019282611539576000855561157f565b82601f1061155257805160ff191683800117855561157f565b8280016001018555821561157f579182015b8281111561157f578251825591602001919060010190611564565b5061158b92915061158f565b5090565b5b8082111561158b5760008155600101611590565b600060208083528351808285015260005b818110156115d1578581018301518582016040015282016115b5565b818111156115e3576000604083870101525b50601f01601f1916929092016040019392505050565b80356001600160a01b038116811461161057600080fd5b919050565b6000806040838503121561162857600080fd5b611631836115f9565b946020939093013593505050565b60008060006060848603121561165457600080fd5b61165d846115f9565b925061166b602085016115f9565b9150604084013590509250925092565b60006020828403121561168d57600080fd5b611696826115f9565b9392505050565b6000602082840312156116af57600080fd5b5035919050565b634e487b7160e01b600052604160045260246000fd5b604051601f8201601f1916810167ffffffffffffffff811182821017156116f5576116f56116b6565b604052919050565b6000602080838503121561171057600080fd5b823567ffffffffffffffff8082111561172857600080fd5b818501915085601f83011261173c57600080fd5b81358181111561174e5761174e6116b6565b8060051b915061175f8483016116cc565b818152918301840191848101908884111561177957600080fd5b938501935b8385101561179e5761178f856115f9565b8252938501939085019061177e565b98975050505050505050565b600082601f8301126117bb57600080fd5b813567ffffffffffffffff8111156117d5576117d56116b6565b6117e8601f8201601f19166020016116cc565b8181528460208386010111156117fd57600080fd5b816020850160208301376000918101602001919091529392505050565b60008060006060848603121561182f57600080fd5b833567ffffffffffffffff8082111561184757600080fd5b611853878388016117aa565b9450602086013591508082111561186957600080fd5b50611876868287016117aa565b925050604084013590509250925092565b6000806040838503121561189a57600080fd5b6118a3836115f9565b91506118b1602084016115f9565b90509250929050565b600181811c908216806118ce57607f821691505b602082108114156118ef57634e487b7160e01b600052602260045260246000fd5b50919050565b60208082526010908201526f14185d5cd8589b194e881c185d5cd95960821b604082015260600190565b634e487b7160e01b600052601160045260246000fd5b600082198211156119485761194861191f565b500190565b6020808252600f908201526e2c21a71d1027a7262c9027aba722a960891b604082015260600190565b6020808252602e908201527f496e697469616c697a61626c653a20636f6e747261637420697320616c72656160408201526d191e481a5b9a5d1a585b1a5e995960921b606082015260800190565b634e487b7160e01b600052603260045260246000fd5b60006000198214156119ee576119ee61191f565b5060010190565b600082821015611a0757611a0761191f565b50039056fea26469706673582212208b05dad958957ce057646deb198b779b3158a92eb8cf7d41d101c491b8f7abf664736f6c634300080b0033",
  "devdoc": {
    "kind": "dev",
    "methods": {
      "allowance(address,address)": {
        "details": "See {IERC20-allowance}."
      },
      "approve(address,uint256)": {
        "details": "See {IERC20-approve}. Requirements: - `spender` cannot be the zero address."
      },
      "balanceOf(address)": {
        "details": "See {IERC20-balanceOf}."
      },
      "decimals()": {
        "details": "Returns the number of decimals used to get its user representation. For example, if `decimals` equals `2`, a balance of `505` tokens should be displayed to a user as `5,05` (`505 / 10 ** 2`). Tokens usually opt for a value of 18, imitating the relationship between Ether and Wei. This is the value {ERC20} uses, unless this function is overridden; NOTE: This information is only used for _display_ purposes: it in no way affects any of the arithmetic of the contract, including {IERC20-balanceOf} and {IERC20-transfer}."
      },
      "decreaseAllowance(address,uint256)": {
        "details": "Atomically decreases the allowance granted to `spender` by the caller. This is an alternative to {approve} that can be used as a mitigation for problems described in {IERC20-approve}. Emits an {Approval} event indicating the updated allowance. Requirements: - `spender` cannot be the zero address. - `spender` must have allowance for the caller of at least `subtractedValue`."
      },
      "increaseAllowance(address,uint256)": {
        "details": "Atomically increases the allowance granted to `spender` by the caller. This is an alternative to {approve} that can be used as a mitigation for problems described in {IERC20-approve}. Emits an {Approval} event indicating the updated allowance. Requirements: - `spender` cannot be the zero address."
      },
      "name()": {
        "details": "Returns the name of the token."
      },
      "paused()": {
        "details": "Returns true if the contract is paused, and false otherwise."
      },
      "symbol()": {
        "details": "Returns the symbol of the token, usually a shorter version of the name."
      },
      "totalSupply()": {
        "details": "See {IERC20-totalSupply}."
      },
      "transfer(address,uint256)": {
        "details": "See {IERC20-transfer}. Requirements: - `recipient` cannot be the zero address. - the caller must have a balance of at least `amount`."
      },
      "transferFrom(address,address,uint256)": {
        "details": "See {IERC20-transferFrom}. Emits an {Approval} event indicating the updated allowance. This is not required by the EIP. See the note at the beginning of {ERC20}. Requirements: - `sender` and `recipient` cannot be the zero address. - `sender` must have a balance of at least `amount`. - the caller must have allowance for ``sender``'s tokens of at least `amount`."
      }
    },
    "version": 1
  },
  "userdoc": {
    "kind": "user",
    "methods": {
      "pause()": {
        "notice": "Pause contract"
      },
      "unpause()": {
        "notice": "Unpause contract"
      }
    },
    "version": 1
  },
  "storageLayout": {
    "storage": [
      {
        "astId": 130,
        "contract": "contracts/XCNToken.sol:XCN",
        "label": "_initialized",
        "offset": 0,
        "slot": "0",
        "type": "t_bool"
      },
      {
        "astId": 133,
        "contract": "contracts/XCNToken.sol:XCN",
        "label": "_initializing",
        "offset": 1,
        "slot": "0",
        "type": "t_bool"
      },
      {
        "astId": 1001,
        "contract": "contracts/XCNToken.sol:XCN",
        "label": "__gap",
        "offset": 0,
        "slot": "1",
        "type": "t_array(t_uint256)50_storage"
      },
      {
        "astId": 302,
        "contract": "contracts/XCNToken.sol:XCN",
        "label": "_balances",
        "offset": 0,
        "slot": "51",
        "type": "t_mapping(t_address,t_uint256)"
      },
      {
        "astId": 308,
        "contract": "contracts/XCNToken.sol:XCN",
        "label": "_allowances",
        "offset": 0,
        "slot": "52",
        "type": "t_mapping(t_address,t_mapping(t_address,t_uint256))"
      },
      {
        "astId": 310,
        "contract": "contracts/XCNToken.sol:XCN",
        "label": "_totalSupply",
        "offset": 0,
        "slot": "53",
        "type": "t_uint256"
      },
      {
        "astId": 312,
        "contract": "contracts/XCNToken.sol:XCN",
        "label": "_name",
        "offset": 0,
        "slot": "54",
        "type": "t_string_storage"
      },
      {
        "astId": 314,
        "contract": "contracts/XCNToken.sol:XCN",
        "label": "_symbol",
        "offset": 0,
        "slot": "55",
        "type": "t_string_storage"
      },
      {
        "astId": 855,
        "contract": "contracts/XCNToken.sol:XCN",
        "label": "__gap",
        "offset": 0,
        "slot": "56",
        "type": "t_array(t_uint256)45_storage"
      },
      {
        "astId": 191,
        "contract": "contracts/XCNToken.sol:XCN",
        "label": "_paused",
        "offset": 0,
        "slot": "101",
        "type": "t_bool"
      },
      {
        "astId": 282,
        "contract": "contracts/XCNToken.sol:XCN",
        "label": "__gap",
        "offset": 0,
        "slot": "102",
        "type": "t_array(t_uint256)49_storage"
      },
      {
        "astId": 4037,
        "contract": "contracts/XCNToken.sol:XCN",
        "label": "blacklist",
        "offset": 0,
        "slot": "151",
        "type": "t_mapping(t_address,t_bool)"
      },
      {
        "astId": 4039,
        "contract": "contracts/XCNToken.sol:XCN",
        "label": "owner",
        "offset": 0,
        "slot": "152",
        "type": "t_address"
      },
      {
        "astId": 4041,
        "contract": "contracts/XCNToken.sol:XCN",
        "label": "minter",
        "offset": 0,
        "slot": "153",
        "type": "t_address"
      },
      {
        "astId": 4043,
        "contract": "contracts/XCNToken.sol:XCN",
        "label": "cap",
        "offset": 0,
        "slot": "154",
        "type": "t_uint256"
      }
    ],
    "types": {
      "t_address": {
        "encoding": "inplace",
        "label": "address",
        "numberOfBytes": "20"
      },
      "t_array(t_uint256)45_storage": {
        "base": "t_uint256",
        "encoding": "inplace",
        "label": "uint256[45]",
        "numberOfBytes": "1440"
      },
      "t_array(t_uint256)49_storage": {
        "base": "t_uint256",
        "encoding": "inplace",
        "label": "uint256[49]",
        "numberOfBytes": "1568"
      },
      "t_array(t_uint256)50_storage": {
        "base": "t_uint256",
        "encoding": "inplace",
        "label": "uint256[50]",
        "numberOfBytes": "1600"
      },
      "t_bool": {
        "encoding": "inplace",
        "label": "bool",
        "numberOfBytes": "1"
      },
      "t_mapping(t_address,t_bool)": {
        "encoding": "mapping",
        "key": "t_address",
        "label": "mapping(address => bool)",
        "numberOfBytes": "32",
        "value": "t_bool"
      },
      "t_mapping(t_address,t_mapping(t_address,t_uint256))": {
        "encoding": "mapping",
        "key": "t_address",
        "label": "mapping(address => mapping(address => uint256))",
        "numberOfBytes": "32",
        "value": "t_mapping(t_address,t_uint256)"
      },
      "t_mapping(t_address,t_uint256)": {
        "encoding": "mapping",
        "key": "t_address",
        "label": "mapping(address => uint256)",
        "numberOfBytes": "32",
        "value": "t_uint256"
      },
      "t_string_storage": {
        "encoding": "bytes",
        "label": "string",
        "numberOfBytes": "32"
      },
      "t_uint256": {
        "encoding": "inplace",
        "label": "uint256",
        "numberOfBytes": "32"
      }
    }
  }
}